:020000040800F2
:1000000028040020D5000008D1150008E5150008D7
:1000100000000000000000000000000000000000E0
:10002000000000000000000000000000F9150008BA
:1000300000000000000000000D1600082116000856
:10004000351600084B1600086116000877160008E0
:100050008D160008A3160008B9160008CF16000870
:10006000E5160008FB1600081117000827170008FE
:100070003D17000853170008691700087F1700088C
:1000800095170008AB170008C1170008D71700081C
:10009000ED17000803180008191800082F180008A9
:1000A000451800085B180008711800088718000838
:1000B0009D180008B3180008C9180008DF180008C8
:1000C0000348854601F058FE004800472714000801
:1000D000280400200448804704480047FEE7FEE764
:1000E000FEE7FEE7FEE7FEE755190008C10000083D
:1000F0004E48006980210840002804D04C484B49F4
:1001000048604C484860704748480069802108436F
:1001100046490861704704204449C968C907C90FA6
:10012000002901D0012010E04049C9681022114087
:10013000002901D0022008E03C49C968042211408E
:10014000002901D0032000E00420704710B50346C9
:100150000424FFF7E0FF044603E0FFF7DCFF04465A
:100160005B1E012C01D1002BF7D1002B00D10524FF
:10017000204610BD30B5044604250B200004FFF7CF
:10018000E5FF0546042D17D12848006902210843E0
:100190002649086108464461006940210843234913
:1001A00008610B200004FFF7D1FF05461F480069D6
:1001B000022188431D490861284630BD78B50646AE
:1001C0000C460425002000900B200004FFF7BEFF22
:1001D0000546042D24D1154800690121084313491F
:1001E000086134800B200004FFF7B0FF0546042DA2
:1001F00010D1B01C0090200C009908800B20000446
:10020000FFF7A4FF05460948006940084000074978
:10021000086105E00548006940084000034908619D
:10022000284678BD0149C8607047000000200240A0
:1002300023016745AB89EFCDF8B50B4600210024BB
:100240000025009500BF3EE001258D402C461D464F
:1002500025400095009DA54234D11578012D02D08E
:100260001578022D16D185684F000326BE40B54390
:10027000856055784E00B540866835438560858831
:1002800001268E40B5438580858896788E40B6B22B
:100290003543858005684F000326BE40B5430560A1
:1002A00015784E00B540066835430560C5684F00B7
:1002B0000326BE40B543C560D5784E00B540C6683C
:1002C0003543C560491C1029BED3F8BDF0B50023E5
:1002D00000244D07EE0E1546B5402B46CD10AE005E
:1002E00005462035AD594E07F70E0F26BE40B543E3
:1002F000CE10B60007462037BD51CD10AE003D46AA
:10030000AD591D432C46CD10AD003E467451F0BD95
:10031000002806D0B849496A01221143B64A516201
:1003200005E0B549496A49084900B34A5162704736
:10033000FEB50446002500260020029001900090A2
:100340000027AD4840680C2108400546002D06D026
:10035000042D07D0082D08D00C2D2CD128E0A7485B
:1003600020602BE0A548206028E0A34840680F21CA
:10037000890408400646A04840680321C903084094
:100380000290B00C861C0298002803D19C48374686
:1003900047430BE09848C06A0007000F401C0190DB
:1003A0009648019901F0AEFC70430746276005E0CE
:1003B0009448206002E09148206000BF00BF8E4852
:1003C0004068F021084005462D098F48405D0090A7
:1003D00021680098C1406160874840680721090290
:1003E000084005462D0A8848405D009061680098E5
:1003F000C140A1608048006BFF2101310840884264
:1004000002D08248E0600DE07B484068012189030A
:100410000840884203D0A0684008E06002E0A0687D
:100420008008E0607448006B40210840402802D0FA
:100430007748206102E00120C00320616E48006B14
:1004400010210840102802D06C48606101E020684B
:1004500060616948006B8007800F002802D1A068A6
:10046000A06119E06448006B8007800F012802D169
:100470002068A06110E06048006B8007800F0228B0
:1004800002D18003A06107E05B48006B8007800F0A
:10049000032801D15948A0615748006B0321090482
:1004A0000840002802D1A068E06120E05248006BBB
:1004B00003210904084001210904884202D120686F
:1004C000E06114E04C48006B03210904084001215D
:1004D0004904884202D18010E06108E04648006B80
:1004E000032109040840884201D14448E0614248A0
:1004F000006B80210840802802D04248206200E042
:100500002762FEBD3C49096A01433B4A11627047BC
:10051000002807D03849096A0122D2031143364A1C
:10052000116206E03449096A0122D2039143324A3A
:1005300011627047002905D02F4A526902432E4BA1
:100540005A6104E02C4A526982432B4B5A6170472E
:10055000002905D0284AD2690243274BDA6104E01A
:10056000254AD2698243244BDA617047002905D0BD
:10057000214AD2680243204BDA6004E01E4AD26866
:1005800082431D4BDA607047002905D01A4A126970
:100590000243194B1A6104E0174A12698243164B51
:1005A0001A61704710B50246002100230020511146
:1005B000002902D1104C23680BE0012902D10E4C16
:1005C000236A06E0022902D10B4C636A01E00A4C5F
:1005D000636BD106C90E01248C401C40002C01D055
:1005E000012000E0002010BD0348406A01210906F7
:1005F00008430149486270470010024000127A0027
:1006000000093D00006CDC0200000020809FD50046
:100610001280000010B504465548844209D10121DA
:100620008803FFF7A3FF002101208003FFF79EFF4F
:1006300025E05048844209D101214804FFF7A4FF76
:10064000002101204004FFF79FFF18E04A48844240
:1006500009D101218804FFF797FF002101208004C0
:10066000FFF792FF0BE04548844208D10121C804FE
:10067000FFF78AFF00210120C004FFF785FF10BDAE
:10068000F0B58BB004460D46002700200A900026E6
:100690002068400840002060666803210903304656
:1006A00088430646A86806436660266834480640C4
:1006B000E968686808432969084306432660A66814
:1006C0000321090230468843064668690643A6604E
:1006D00001A8FFF72DFE2648844202D107980A9010
:1006E00007E02448844202D108980A9001E0039868
:1006F0000A9020680121C903084000280CD029680D
:100700000A9A500001F0FEFA074629680A9A50003A
:1007100001F0F8FA0E4609E029680A9801F0F2FAA9
:10072000074629680A9801F0EDFA0E462868400845
:10073000B04200D87F1C20680121C903084000286E
:1007400006D03807460F38460E4908403043074662
:10075000A7810BB0F0BD002904D0026801231A4321
:10076000026003E002685208520002607047000015
:10077000003801400044004000480040004C004068
:10078000F3E9FFFFF0FF00000849086070470749E0
:10079000486070470549886070470548034908600C
:1007A000704704480149086070470000003000406D
:1007B000AAAA0000CCCC0000002807D0074909688D
:1007C000FF2201321143054A116006E0034909681E
:1007D000FF2201329143014A1160704700700040CE
:1007E0007248C068802188437049C860704708B566
:1007F00000220092002000216C4AD26840231A4057
:10080000002A1BD1421E694BDA6000BF674AD268DA
:1008100040231A401146009A521C00921B02009A73
:100820009A4201D00029F1D0604AD26840231A4090
:10083000002A01D0012002E0002000E0012008BDD4
:1008400030B504460025CA20584948625320486202
:10085000FFF7CDFF002800D117E054488068402101
:1008600088435249886008468068216808434F4998
:100870008860A068086108460069A18809040843E7
:100880004A490861FFF7ACFF0125FF20474948624C
:10089000284630BD08B50022009200200021434ABE
:1008A000926820231A40002A01D0012025E0CA22A4
:1008B0003E4B5A6253225A621A46D268A0239A4388
:1008C0003A4BDA6000BF394AD26820231A401146F9
:1008D000009A521C00929B02009A9A4201D0002971
:1008E000F1D0324AD26820231A40002A01D00120D8
:1008F00000E00020FF222D4B5A6208BD08B50022FF
:1009000000922A4A503200928200009BD218009234
:10091000009A116008BD08B50146002000902348E8
:10092000503000908800009A80180090009800686D
:1009300008BD1E49403109680122920491431B4AB7
:10094000403211601146096801431160704710B5CB
:10095000CA22164B5A6253225A62002911D01A46F3
:10096000926804240346A3431A43104B9A600F4A2B
:1009700040321268042303401A430C4B40331A6080
:1009800010E00A4A926804240346A3439A43074BA3
:100990009A60064A40321268042303409A43034B8C
:1009A00040331A60FF22014B5A6210BD00280040FC
:1009B00038B504460221684601700021817001218A
:1009C000C1704170012C02D0022C33D11AE00121F8
:1009D0004804FFF7AFFD01214804FFF7B9FD0122EC
:1009E00002210920C006FFF771FC01220321092022
:1009F000C006FFF76BFC6A460C210920C006FFF712
:100A00001BFC18E00121C804FFF794FD01218804B4
:100A1000FFF79EFD012204214D48FFF757FC0122FC
:100A200005214B48FFF752FC6A4630214848FFF742
:100A300003FC00E000BF00BF38BD30B587B00446FE
:100A40000D460195002002900120400303900020F4
:100A5000049006900C200590A1003E4A505801A930
:100A6000FFF70EFE07B030BD70B504460D46042CEE
:100A700000DB70BDA100374A5058FFF7CBFD204680
:100A8000FFF796FF29462046FFF7D7FFA100314A1E
:100A900050580121FFF75FFE00BFEAE710B504469A
:100AA000042C00DB10BDA1002A4A5058FFF7B2FD0C
:100AB00000BFF7E710B501468800264B1858C069FB
:100AC00020231840202806D18800224B1858808CFB
:100AD000C2B2104610BD0F208B001E4CE3581862A6
:100AE0000020C043F6E770B504460E46154612E0F6
:100AF00002E00A2000F099FFA00016490858C069DA
:100B0000402108404028F4D13078A100114A5158C2
:100B10000885761C6D1E002DEADC70BD70B505469B
:100B20000C4611E002E00A2000F07FFFA80009490E
:100B30000858C069402108404028F4D12078A90015
:100B4000044A51580885641C20780028EAD170BDF9
:100B500000080048D81D000810B5FB480088002890
:100B600004D0F9480088401EF7490880F74800780B
:100B7000002804D0012811D002281BD11BE0F24824
:100B80000088002809D10421F14800F0EFFF01207E
:100B9000EE4908702320EC4908800DE0EA480088FF
:100BA000002806D10421EA4800F0DEFF0220E749D0
:100BB000087001E000BF00BF00BF10BD70B5054662
:100BC0000C46E4480078002800D070BD552D2BD18C
:100BD000E1480078082824D12078552821D1607870
:100BE000F021084020281CD1A078002819D1E078F5
:100BF000022816D120790A2813D16079012810D152
:100C0000A07901280DD10822D4A10220FFF76BFFA3
:100C10000822D5A10220FFF766FF0120CD49087008
:100C2000D3E70020CC490870CB4909786554CA48FD
:100C30000078401CC0B2C84908703C2801DB002085
:100C4000087000BFC1E7F3B585B006463446707939
:100C50003179090208430746B81D80B20490062284
:100C6000C4A101A801F064F80498C1B201A8C1713F
:100C70000498001269468872082201A90220FFF731
:100C800032FF062221460220FFF72DFF00200390AD
:100C9000002507E02178641C0398081880B20390AF
:100CA000681C85B2062DF5D3002507E00698415D46
:100CB0000398081880B20390681C85B2BD42F5DB2A
:100CC000002F04D03A4602200699FFF70CFF039844
:100CD000C1B268464171039801126846017102224F
:100CE00001A91046FFF7FFFE002007B0F0BDF3B5E5
:100CF00087B00546069500270020059004900290D5
:100D00000090A9E00220FFF7D5FE0446002C05DA8A
:100D10000098401C009000F05FFE8BE000200090E7
:100D20000298030001F03AF80906101E2A305D3AD5
:100D30006C728400FF2C02D10120029003E0204657
:100D40000899FFF73BFF74E0292C02D102200290A2
:100D500007E0FF2C05D08AA10120FFF7DFFE00206D
:100D6000029066E0AA2C02D10320029005E085A142
:100D70000120FFF7D3FE002002905AE02006000C6D
:100D800005900420029054E00598204380B205901D
:100D9000002700200490062002904AE03846791C83
:100DA0008FB206990C540498001980B20490062F53
:100DB00016D16E79297909020E43B01D0599884232
:100DC00006D071A10120FFF7A9FE0820019046E09E
:100DD0000027002E02D10720029001E0052002909A
:100DE00027E03846791C8FB208990C5404980019F2
:100DF00080B20490B74202DB00270720029018E07F
:100E00002006000C03900820029012E00398204373
:100E100080B2039003990498884206D05BA1012018
:100E2000FFF77CFE0A20019019E00920029000E003
:100E300000BF00BF0298092807D12878A52801D053
:100E4000062000E00020019007E051490098884208
:100E500002D90E20019000E054E700BF00BF0198C6
:100E600009B0F0BDFEB506460D467079317909022C
:100E700008430190284600F00AFF0090687929791C
:100E80000902084307460198062801D0082420E0FB
:100E90000120C002874201D009241AE03946009897
:100EA00000F030FF002909D10121C90600988842CD
:100EB00004D30098C0193749884201D90B2408E0AF
:100EC0000121009800F0D0FD002801D10D2400E0A0
:100ED00000242046FEBDF3B583B00C46039840794C
:100EE00003990979090208430090204600F0CFFEDB
:100EF000019060792179090208430646E079A179D9
:100F0000090208430290314608310098884201D016
:100F100008256BE0042E03DB0120C002864201DDC0
:100F2000092563E001984005400D002809D1012101
:100F3000C9060198884204D301988019154988424E
:100F40002AD90B2552E000001200002010000020DA
:100F5000000400481800002019000020552100015D
:100F60001105C75500000000552F00011105B855A7
:100F700000000000FFFFFFFF2955000000000000F7
:100F80002E0000003B0000002D0000003F0000008C
:100F9000307500000000020831462046083000F09D
:100FA00055FE07460298874201D0012000E000204C
:100FB000002801D00A2519E032462146083101985F
:100FC00000F076FD002801D10C250FE03146019894
:100FD00000F03CFE07460298874201D0012000E065
:100FE0000020002801D00A2500E00025284605B091
:100FF000F0BDF8B505460E461746E80AC0020121C5
:1010000000F032FD002801D10D2409E03A463146B6
:10101000284600F04DFD002801D10C2400E00024FA
:101020002046F8BDF0B585B007460C467879397989
:10103000090208430090204600F029FE01906079E3
:101040002179090208430646E079A179090208439B
:101050000390314608310098884201D0082527E0E6
:10106000042E01D0092523E00121C90601988842F8
:1010700004D301988019FC49884201D90B2517E057
:1010800031462046083000F0E1FD029003990298B5
:10109000884201D0012000E00020002801D00A256C
:1010A00006E03246214608310198FFF7A2FF0546C7
:1010B000284605B0F0BD10B501218804FFF73AFAC3
:1010C00001210805FFF736FA8021E84800F06DFDA0
:1010D0008021E64800F048FD322000F081FC02212A
:1010E000E24800F043FD0221E04800F05EFD0421EB
:1010F000DF4800F03BFD0421DD4800F056FD0121F2
:10110000DA4800F033FD0121D84800F04EFD0121FE
:101110008903D84800F02AFD0421D54800F045FD98
:1011200010BD70B5D44D2946D448FFF7E0FD044604
:10113000002C03D00020D249087070BDD048007840
:10114000002805D10120CE490870CEA1FFF7E6FCAA
:10115000CFA10120FFF7E2FC0621CE4800F001FEFE
:10116000C6484078012806D0022806D003280AD0B5
:10117000042816D10DE0002415E02946BF48FFF7EA
:1011800071FE04460FE02946BC48FFF7A4FE044662
:1011900009E02946B948FFF745FF044600F057FC2F
:1011A00001E0052400BF00BF00F016FC5A20B94939
:1011B0000870B24840784870B048C078C870084697
:1011C0008470002088800021B248FFF73CFDAB48C6
:1011D000407804281CD1002C1AD1A3484038C06B99
:1011E000AD49884214D10020A5490870ABA1012067
:1011F000FFF794FC322000F0F3FBFFF75CFFFF20C9
:10120000F53000F0EDFBA74800F025FC00BFFEE73D
:1012100000BF92E710B50024A3A10120FFF77EFCD8
:101220005920FFF7BFF9002803D0A3A10120FFF741
:1012300075FC5A20FFF7B6F9002803D0A0A10120C1
:10124000FFF76CFC5720FFF7ADF9002803D09FA1F2
:101250000120FFF763FC5B20FFF7A4F9002803D00F
:101260009EA10120FFF75AFC5C20FFF79BF90028A4
:1012700003D09CA10120FFF751FC5D20FFF792F9FC
:10128000002816D099A10120FFF748FC0020FFF7A5
:1012900042FB0446601C04460A280AD3002400F0DE
:1012A000CFFB042293A17048001FFFF7A2FE00F0BD
:1012B000CEFB21460020FFF721FB5E20FFF772F9ED
:1012C000002803D08DA10120FFF728FC5F20FFF745
:1012D00069F9002803D08BA10120FFF71FFC8BA127
:1012E0000120FFF71BFCFFF77FF910BD10B50121AE
:1012F0000920C00600F040FC002801D1012000E0D8
:10130000002085490978884226D084480078002842
:1013100003D164208149087021E080480078401E94
:10132000C0B27E490870002819D101210920C006E9
:1013300000F022FC002801D1012000E000207649C5
:10134000087008460078002802D1FFF7B4FE06E0D6
:10135000544800F080FB02E000207049087010BD86
:1013600010B501218804FFF7E5F80121C804FFF753
:10137000E1F820213D4800F018FC20213B4800F016
:10138000F3FB0121394800F0EFFB0121374800F061
:101390000CFC0421354800F0E7FB0421334800F041
:1013A00004FC0221314800F0DFFB02212F4800F04D
:1013B000FCFB012189022D4800F0E7FB012000F031
:1013C0000FFB01218902294800F0D6FB002801D03B
:1013D000022000E0002052490870084600780228E8
:1013E00001D1012000E000204E4908700846007835
:1013F00000280DD102211D4800F0B8FBC82000F0E4
:10140000EFFA0221194800F0AFFB0A204649088094
:1014100001210903154800F0A7FB01210903134826
:1014200000F0C3FB10BD00F0E4FA72B6E1214902FE
:101430000120FFF719FBE12149020220FFF714FB0D
:1014400000F0F8FBFFF7E6FE38A10120FFF766FB8E
:1014500005484038C06B104988427DD13CA101202D
:10146000FFF75CFB7CE077E0000002080004004826
:10147000000C004800080048002000201A0000204E
:1014800015000020557067726164653A0000000025
:101490003E00000020000020AAAAAAAA446F6E65A0
:1014A000210D000004000008526573756D6564200D
:1014B00066726F6D202820004F424C2C20000000E7
:1014C0005253542D50494E2C20000000312E3856D6
:1014D0002D446F6D61696E2C200000005057522C16
:1014E000200000005346542C200000004957444778
:1014F0002C200000FFFFFFFF00000000575744476B
:101500002C2000004C6F77507772200029207265E4
:101510007365742E0D0000001700002016000020D7
:10152000100000201400002012000020426F6F7491
:101530006C6F616465722028323031372E30352E61
:1015400031312C2031323A30303A3030292E0D00F2
:101550004150504C0000000015A10120FFF7DEFAB9
:1015600015A10120FFF7DAFA1548C06B154988422A
:1015700005D162B6144800F06EFA00BFFEE700F035
:101580005FFA01214804FEF7D5FF01210920C006BA
:1015900000F0FBFAFFF7E4FE09E00C4800780028B1
:1015A00003D0FFF7BEFDFFF7D7FAFFF79FFEF4E782
:1015B000424F4F54000000002D4D6F64652E0D000A
:1015C000C0FF0108AAAAAAAA044000081700002028
:1015D00010B5C848C06BC849884202D1C74988685D
:1015E000804710BD10B5C348C06BC349884202D1C3
:1015F000C249C868804710BD10B5BE48C06BBE491F
:10160000884202D1BD49C86A804710BD10B5B948AB
:10161000C06BB949884202D1B849886B804710BD78
:1016200010B5B448C06BB449884202D1B349C86B05
:10163000804710BD10B5AF48C06BAF49884203D199
:10164000AE4940310868804710BD10B5A948C06B4D
:10165000A949884203D1A94940314868804710BD53
:1016600010B5A448C06BA449884203D1A3494031B6
:101670008868804710BD10B59E48C06B9E4988425F
:1016800003D19E494031C868804710BD10B59948C4
:10169000C06B9949884203D1984940310869804715
:1016A00010BD10B59348C06B9349884203D193494C
:1016B00040314869804710BD10B58E48C06B8E49D7
:1016C000884203D18D4940318869804710BD10B5EB
:1016D0008848C06B8849884203D188494031C8692D
:1016E000804710BD10B58348C06B8349884203D141
:1016F00082494031086A804710BD10B57D48C06BF3
:101700007D49884203D17D494031486A804710BDF8
:1017100010B57848C06B7849884203D17749403189
:10172000886A804710BD10B57248C06B7249884204
:1017300003D172494031C86A804710BD10B56D4869
:10174000C06B6D49884203D16C494031086B8047BA
:1017500010BD10B56748C06B6749884203D167491F
:101760004031486B804710BD10B56248C06B62497C
:10177000884203D161494031886B804710BD10B564
:101780005C48C06B5C49884203D15C494031C86BFE
:10179000804710BD10B55748C06B5749884203D1E8
:1017A000564980310868804710BD10B55148C06B5C
:1017B0005149884203D1514980314868804710BD62
:1017C00010B54C48C06B4C49884203D14B4980311D
:1017D0008868804710BD10B54648C06B46498842AE
:1017E00003D146498031C868804710BD10B54148D3
:1017F000C06B4149884203D1404980310869804724
:1018000010BD10B53B48C06B3B49884203D13B49F2
:1018100080314869804710BD10B53648C06B3649E5
:10182000884203D1354980318869804710BD10B5A1
:101830003048C06B3049884203D130498031C86993
:10184000804710BD10B52B48C06B2B49884203D18F
:101850002A498031086A804710BD10B52548C06B01
:101860002549884203D125498031486A804710BD07
:1018700010B52048C06B2049884203D11F498031F0
:10188000886A804710BD10B51A48C06B1A49884253
:1018900003D11A498031C86A804710BD10B5154878
:1018A000C06B1549884203D114498031086B8047C9
:1018B00010BD10B50F48C06B0F49884203D10F49C6
:1018C0008031486B804710BD10B50A48C06B0A498B
:1018D000884203D109498031886B804710BD10B51B
:1018E0000448C06B0449884203D104498031C86B65
:1018F000804710BDC0FF0108AAAAAAAA004000089C
:101900000CB500200190009011202E4908602E484F
:1019100040682D4948600846406848600846406B6A
:101920000121090408432849486300BF2648406B49
:101930000121490408400028F8D023484068800865
:1019400080002149486008464068032108431E4939
:1019500048600CBD10B51C480068012108431A49B5
:101960000860084640681949084017494860084619
:1019700000681749084014490860084600680121BA
:101980008904884310490860084640687F21C903DC
:1019900088430D4948600846C06A00090001C862D2
:1019A0000846006BFF215431884307490863084605
:1019B000406B084908400449486300208860FFF7ED
:1019C0009FFF10BD00200240001002400CB8FF80B5
:1019D000FFFFF6FEFEFFFEFF10B5FEF7DEFE10BDB8
:1019E0007D2292015043002100E0491C8142FCD33A
:1019F000704710B50121C802FEF7AAFD0120FEF7CD
:101A000087FC0D48FEF7C0FE0620FEF7C0FE012051
:101A1000FFF7E6FF0948FEF7BDFE0120FFF7E0FFF4
:101A2000FEF7BBFEFEF7BDFE10BDC000002100E0CA
:101A3000491C8142FCD3704755550000FF0300004C
:101A400010B5FEF755FB3420FEF7ECFB10BD10B5CA
:101A5000FEF75AFB10BD70B504462568404880F378
:101A6000088800BFA84770BDF8B504460D46012799
:101A7000E40AE402F806844201D20020F8BDE8023C
:101A800000193849884201D90020F7E700260AE00A
:101A90002046FEF76FFB042801D0002705E0012057
:101AA000C0022418761CAE42F2DB00BF3846E5E7E0
:101AB000F7B582B004461546039800900120C00691
:101AC000844202D2002005B0F0BD60192549884249
:101AD00001D90020F7E7A707BF0F002F18D0A408EF
:101AE000A400206801900420C61B01A9C819324631
:101AF000009900F01DF920460199FEF75FFB0428CC
:101B000001D00020DFE7241D009880190090AD1B54
:101B100011E0042201A8009900F00AF92046019979
:101B2000FEF74CFB042801D00020CCE7241D0098D0
:101B3000001D00902D1F042DEBDA002D0ED0206823
:101B400001902A4601A8009900F0F2F82046019978
:101B5000FEF734FB042801D00020B4E70120B2E7EF
:101B6000FC3F00200000020881617047018570473A
:101B70000246108A084070470246108A0840002832
:101B800001D0012070470020FCE738B504460D461F
:101B9000002168464170017081700121C1706A4660
:101BA00029462046FEF748FB38BD38B504460D46A9
:101BB00000216846417001210170002181700121DE
:101BC000C1706A4629462046FEF736FB38BD38B557
:101BD00004460D4600216846417001708170C17055
:101BE0006A4629462046FEF727FB38BD3EB501214F
:101BF0000807FEF7ADFC0120FEF7DEFD0120FEF731
:101C000087FB00BF4120FEF7CDFC0028FAD0012061
:101C10004002FEF777FC0B4D01240120FEF778FC13
:101C2000FEF738FE00200090019402956846FEF70A
:101C300007FE3EBD10B5FFF7D9FF00210248FEF7B1
:101C400086FE10BDB04F000004D0000070B5024603
:101C5000002019E003130405200C1478E5172D0F5C
:101C60002D192D115D406D00254E755B68400313E5
:101C70000405200C14782407240F5C4064003546CA
:101C80002C5B6040521C491E0029E3D170BD014607
:101C90000A461378180653781B04184393781B02DE
:101CA0001843D37818437047024610460B0E037052
:101CB000401C0B021B0E0370401C0B041B0E037018
:101CC000401C0170704701460A46107853781B0289
:101CD000184393781B041843D3781B0618437047A6
:101CE000024610460170401C0B041B0E0370401C82
:101CF0000B021B0E0370401C0B0E0370704700009C
:101D0000E81D000830B50B460146002020220124C2
:101D100009E00D46D5409D4205D31D469540491B1F
:101D20002546954040191546521E002DF1DC30BD68
:101D300003460B439B0703D009E008C9121F08C0E4
:101D4000042AFAD203E00B780370401C491C521E8F
:101D5000F9D27047D2B201E00270401C491EFBD29A
:101D600070470022F6E710B513460A4604461946A6
:101D7000FFF7F0FF204610BD064C0125064E05E09A
:101D8000E36807CC2B430C3C98471034B442F7D39C
:101D9000FEF79AF9081E0008281E000830B47446A1
:101DA000641E2578641CAB4204D3635D5B00E318BA
:101DB00030BC18471D46F8E702E008C8121F08C1EA
:101DC000002AFAD170477047002001E001C1121FBC
:101DD000002AFBD170470000003801400044004059
:101DE00000480040004C00400000211042206330B9
:101DF0008440A550C660E770088129914AA16BB163
:101E00008CC1ADD1CEE1EFF1281E0008000000200A
:101E100028000000B81D0008501E000828000020FF
:101E200000040000C81D00080000000001020304B7
:101E30000102030406070809000000000000000179
:101E40000000000000000000000000000000000092
:04000005080000C12E
:00000001FF
